:020000040800F2
:1000000078D40020B9020008CB5A0008213100083A
:10001000C95A000835250008B99A000800000000F8
:10002000000000000000000000000000378700080A
:100030005728000800000000D9650008B5910008A5
:10004000D3020008D3020008D3020008256C000880
:10005000D3020008D302000815290008D3020008C3
:100060003129000869290008A1290008D3020008E5
:10007000D3020008D3020008D3020008D30200080C
:10008000D3020008D3020008D3020008D3020008FC
:10009000D3020008D3020008D30200081D2A00087A
:1000A000D3020008D3020008D3020008D3020008DC
:1000B000D302000835920008C9920008D302000854
:1000C000D3020008D3020008D3020008D3020008BC
:1000D000D30200083596000899960008C5970008D5
:1000E000D3020008D3020008D3020008D30200089C
:1000F000D3020008D3020008D3020008D30200088C
:10010000D3020008DD72000805930008D30200083E
:10011000D3020008D30200088D9300082D94000834
:10012000D3020008D3020008D3020008D30200085B
:1001300000F002F800F0B0F80AA090E8000C824449
:100140008344AAF10107DA4501D100F0A5F8AFF226
:10015000090EBAE80F0013F0010F18BFFB1A43F0A5
:100160000103184754440100744401000A444FF04D
:10017000000C10F8013B13F0070408BF10F8014B06
:100180001D1108BF10F8015B641E05D010F8016B4B
:10019000641E01F8016BF9D113F0080F1EBF10F8AF
:1001A000014BAD1C0C1B09D16D1E58BF01F801CBD2
:1001B000FAD505E014F8016B01F8016B6D1EF9D555
:1001C0009142D6D37047000000230024002500266A
:1001D000103A28BF78C1FBD8520728BF30C148BFAA
:1001E0000B6070476E2900F06984702900F0A981C6
:1001F000662910F08C82652910F08982672910F039
:1002000086826129AFF3008003681B0A28BF41F092
:100210008001692900F01A81642900F0178175298D
:1002200000F014816F2900F06085782900F0758155
:10023000E92900F0FB84E42900F0F884F52900F0B6
:10024000F584EF2900F05D85F82900F074810368DA
:10025000DB0928BF41F08001632900F06A8473291B
:1002600000F06F84E32901F00E80F32901F0138080
:10027000002070471FB501F063F804000020002142
:100280000FF0DEFD401C6060002000210FF0C2FD79
:10029000E0601FBD10B510BD01F025F81146FFF755
:1002A000E9FF0DF07FF801F001F903B4FFF7F2FF69
:1002B00003BC09F082FD0000094880470948004757
:1002C000FEE7FEE7FEE7FEE7FEE7FEE7FEE7FEE706
:1002D000FEE7FEE704480549054A064B7047000063
:1002E000E59100083101000878CE002078D4002084
:1002F00078D0002078D00020704710B54C1084EAE8
:10030000530404D54042C1F1000138BF491E1B42CD
:1003100004D55242C3F1000338BF5B1E00F0ECFA73
:1003200014F0804F04D04042C1F1000138BF491E93
:1003300014F0004F04D05242C3F1000338BF5B1EDB
:1003400010BD00001CB50C46064B7B44694600906E
:10035000204600F0CCFB04460020694600F0DAFBA2
:1003600020461CBDC70700000FB4044910B503AAFE
:10037000029800F0EBFB10BC5DF814FB5800002065
:100380000FB41CB5084B06AA7B446946009005983B
:1003900000F0ADFB04460020694600F0BBFB2046A0
:1003A0001CBC5DF814FB00008907000070B5044612
:1003B00085690068C10601D5302600E02026C00707
:1003C00007D070BDD4E9012130469047206A401C17
:1003D00020626D1EF6D570BD70B504468569007843
:1003E000C00707D170BDD4E9012120209047206AC1
:1003F000401C20626D1EF6D570BD70B50C460546DA
:10040000012A05D02878800600D5EA69002302E099
:10041000012305E05B1C934202D2E05C0028F9D185
:10042000A869E618C01AA861286A184428622846F4
:10043000FFF7BCFF04E0D5E9012114F8010B904758
:10044000B442F8D32846FFF7C7FF70BD2DE9F0414D
:100450000646002410687529314616A510D000F014
:10046000C2FA002802DA404213A507E031688A0781
:1004700001D512A502E0490704D511A5012401E028
:1004800000F0BAFA00210A2206F1240709E0B0FBC5
:10049000F2FCB0FBF2F302FB1C003030785418463B
:1004A000491C0028F3D123462A463046BDE8F041D6
:1004B00000F0ABBA000000002D0000002B0000008F
:1004C00020000000F0B40D460188090502D5214C3A
:1004D0007C4402E01F4C7C440E34002100F12406D1
:1004E00008E002F00F071209E75D42EA03721B09F8
:1004F0007754491C52EA0307F3D10278002312070C
:1005000004D5702D06D009B1022311342246F0BC67
:1005100000F07BBA01231034F8E770B504460D46AD
:100520002146106800F068FA024629462046BDE8D8
:1005300070400023C6E7D21D22F00703D3E9002351
:10054000C0E70368126843F0200303600823C36117
:100550000023B7E7E03D01002DE9F05F894604463E
:100560004FF0000ADFF874B1FB44C0F820A0204629
:10057000E1688847002874D0252806D0D4E90121F5
:100580009047206A401C2062F1E700265F46204623
:10059000E16888472028054607DB312D05D2781908
:1005A00010F8200C08B10643F1E7B00701D526F09A
:1005B0000406C4F81CA00027C4F818A02A2D09D0EE
:1005C000284609F0F3FB38B304EB8708303DC8F840
:1005D000185019E059F8041B204604EB870291617A
:1005E000E1688847012F054618D1E069002820DA24
:1005F00026F020061DE0D8F8180000EB800005EB7F
:1006000040003038C8F818002046E16888470546A1
:1006100009F0CCFB0028EED1012F0AD02E2D08D1F5
:100620002046E16888477F1C0546022F46F02006D9
:10063000C4DBA069002803DA404246F00106A0614D
:10064000F00701D026F010066C2D0BD0682D09D0D4
:100650004C2D39D06A2D35D0742D35D07A2D33D02C
:1006600016E038E0E1682F4620468847B842054644
:1006700009D16C2F26D04FF48060E16806432046F4
:100680008847054604E06C2F1AD04FF4807006436B
:100690000DB3A5F14100192802D8203546F40066B3
:1006A0004A462946204626604E46FFF79BFD80B10C
:1006B00001280BD0F61D26F0070000F1080956E7C7
:1006C0004020E4E78020D8E70020D6E706F10409BF
:1006D0004DE7284652E7206ABDE8F09F703D0100D3
:1006E00030B505460B462A4613F8014B12F8010BAC
:1006F00008B1A042F8D01CB1002802D06D1CF1E76F
:10070000284630BD40EA0103024630B59B0710D1B0
:100710004FF0013400E008C208C91D1B9D4315EAD3
:10072000C41FF8D013F0FF0102F8011B0DD01B0A03
:10073000F8E711F8013B002B02F8013B05D011F856
:10074000013B002B02F8013BF3D130BD10B5431C37
:1007500002E010F8011B71B18107FAD14FF00132AC
:1007600002C88C1A8C4314EAC211F9D0C01A0A06C6
:1007700003D0C01E10BDC01A10BD0A0401D0801ED7
:1007800010BD0902FCD0401E10BD421E12F8013FF0
:10079000002BFBD111F8013B002B02F8013BF9D1F2
:1007A0007047032A40F2308010F0030C00F01580EF
:1007B00011F8013BBCF1020F624498BF11F801CB64
:1007C00000F8013B38BF11F8013BA2F1040298BFC9
:1007D00000F801CB38BF00F8013B11F0030300F033
:1007E0009B82083AC0F0088051F8043B083A51F85F
:1007F00004CBA0E80810F5E7121D5CBF51F8043BDC
:1008000040F8043BAFF30080D20724BF11F8013B4E
:1008100011F801CB48BF11F8012B24BF00F8013BB0
:1008200000F801CB48BF00F8012B70474FF00002E1
:100830000429C0F0128010F0030C00F0A182CCF16A
:10084000040CBCF1020F18BF00F8012BA8BF20F860
:10085000022BA1EB0C0100F093BA5FEAC17C24BF2C
:1008600000F8012B00F8012B48BF00F8012B70475E
:100870004FF0013C50F8042B51F8043B9A4221D12F
:10088000A2EB0C03934313EACC1317D150F8042BBB
:1008900051F8043B9A4215D1A2EB0C03934313EA9F
:1008A000CC130BD150F8042B51F8043B9A4209D1D8
:1008B000A2EB0C03934313EACC13DBD04FF0000000
:1008C000704700BFD01A01BAB1FA81F101F01801E6
:1008D00022FA01F0CB40C1F12001DBB2C0B2C01A54
:1008E0002CFA01F3D11A914311EAC311E6D17047F2
:1008F000704770477047704753EA020C00F06980F8
:100900002DE9F04B4FF00006002B1FBFB3FA83F523
:1009100003FA05F424FA05F65E4012BF1643B2FA54
:1009200082F502FA05F4C5F120051EBF22FA05FC86
:1009300044EA0C04203556EA044C4FEA144418BF2C
:10094000641C4FF000084FF00009904271EB030C5B
:1009500039D3002919BFB1FA81F701FA07F6B0FAC5
:1009600080F700FA07F6C7F120071EBF20FA07FC40
:1009700046EA0C062037B6FBF4FCA7EB0507103F50
:1009800007F01F0BCBF120060CFA0BFB2CFA06F636
:1009900044BFB3460026202FA4BF5E464FF0000B95
:1009A0005BEA060C08BF4FF0010B19EB0B09ABFB20
:1009B000027C48EB0608C01B06FB02CC0BFB03CCF9
:1009C00071EB0C01C1E70B46024641464846BDE8C3
:1009D000F08B13B54FF000004FF00001AFF3008033
:1009E000BDE81C40704709684A0501D540B2704710
:1009F000C905FCD500B2704709684A0501D5C0B2E7
:100A00007047C905FCD580B270472DE9F0470D4607
:100A100099469246044600F124080168880604D5E8
:100A2000E06921F01001216000E00120A84201DD11
:100A3000471B00E00027A1697A1902EB0900081A98
:100A4000A0612078C00602D42046FFF7AFFC002644
:100A500008E0D4E901211AF806009047206A401CFA
:100A6000761C20624E45F4DB2078C0060AD520466D
:100A7000FFF79CFC06E0D4E9012130209047206A72
:100A8000401C2062381EA7F10107F4DC07E0D4E91E
:100A9000012118F805009047206A401C2062281E9A
:100AA000A5F10105F3DC2046FFF796FC207800064F
:100AB00002D50220BDE8F0870120FBE7116802683B
:100AC000006A530501D508700AE0D30501D50880F6
:100AD00006E0130603D5C217C1E9000200E0086072
:100AE0000120704701694A1C02610878704700B50F
:100AF0008FB0CDE901310021059105497944CDE957
:100B0000031011466846FFF727FD0FB000BD000037
:100B1000E5FFFFFF0A6802F8010B0A60704710B595
:100B2000436913B1AFF3008001E0FFF766FC0120D9
:100B300010BD127800F124010A7000224A700122CF
:100B4000EDE711684FF0FF32E9E70000074B70B5A1
:100B50000D467B44FFF7CBFF0446284600F09FFB81
:100B600010B14FF0FF3070BD204670BDEBB30000F8
:100B70002DE9FF5F15468A460446DFF8AC80F8444D
:100B80000027D8E900103E46CDE9001010E03AF801
:100B900016106A4602A800F086FB411C07D0217897
:100BA000890603D5E269391891420DD80744761CAD
:100BB0002078800602D5E069B84205DDAE42E6DB6A
:100BC0003AF816000028E2D1A069C01BA0612046B7
:100BD000FFF7ECFBD8E90010CDE90010002017E08A
:100BE0003AF818106A4602A800F05DFBB0F1FF3F2A
:100BF00081460BD000250DF1080B05E0D4E9012159
:100C00001BF8050090476D1C4D45F7D308F1010016
:100C1000B0428046E4DB206A384420622046FFF779
:100C2000DBFBBDE8FF9F00006E3701002DE9F041BE
:100C30008046D21D22F007020025D2E90002F529E4
:100C400015A614D0011E72F1000106DA0023D0EBC4
:100C5000030063EB020211A608E0D8F800108B072E
:100C600001D50FA602E0490701D50EA601251146C0
:100C7000002408F1240704E000F0A7F830323A55C8
:100C8000641C50EA0102F7D12B4632462146404609
:100C9000BDE8F041FFF7B9BE000000002D000000E4
:100CA0002B0000002000000030B4002100F12404DB
:100CB00008E002F00705D208303542EA4372DB084B
:100CC0006554491C52EA0305F3D10468002310A2BD
:100CD000250707D5A40600D421B1C46901230DA2BC
:100CE000641EC46130BCFFF790BE10B504462146B7
:100CF0001068FFF781FE02462046BDE81040002341
:100D0000D2E7D21D22F00701D1E90023CCE7000091
:100D1000000000003000000010B5203AC0F00B8049
:100D2000B1E81850203AA0E81850B1E81850A0E8EF
:100D30001850BFF4F5AF5FEA027C24BFB1E8185049
:100D4000A0E8185044BF18C918C0BDE810405FEAB9
:100D5000827C24BF51F8043B40F8043B08BF704735
:100D6000D20728BF31F8023B48BF11F8012B28BF3A
:100D700020F8023B48BF00F8012B70474FF00002FB
:100D800000B5134694469646203922BFA0E80C5081
:100D9000A0E80C50B1F12001BFF4F7AF090728BF5C
:100DA000A0E80C5048BF0CC05DF804EB890028BFD8
:100DB00040F8042B08BF704748BF20F8022B11F001
:100DC000804F18BF00F8012B704730B5B0F10A0210
:100DD0004FEA900E71F100034EEA817EB0EB0E00F7
:100DE00061EB91014FEA101E4EEA017E10EB0E00FE
:100DF00041EB11114FEA102E4EEA016E10EB0E007E
:100E000041EB11214FEA104E4EEA014E10EB0E005D
:100E100041EB1141401841F100014FEAD00040EA96
:100E200041704FEAD10110EB80054FEA810444EA9A
:100E3000907444EB01046D1944EB0404521BA3416C
:100E40004FF0000348BF0A3200D530BD401C41F1CD
:100E5000000130BD70472DE9FF4F0C461E464FF094
:100E6000FF378BB0D2E90001DDF860800A908A4636
:100E7000C1F30A5505B93D46002108464FF0000070
:100E8000BAF1000F00F4400005DA00EB80004FF4E7
:100E9000400101EA50004FEA9059B9F1010F00DD1D
:100EA000B9460A9850EA4A000ED044F61050A5F20E
:100EB000FF3545432F14B8F1000F1ED07542291E8F
:100EC0001EDDC9F100021CE0B8F1010F4FF0000077
:100ED00001D0302103E0F24305E02154401CB04230
:100EE000FBDB30460022002121540B99C1F8088019
:100EF000C1E900200FB0BDE8F08FBD1B6D1CDEE71F
:100F00004A4600DA694206A800F05EFA06AB93E8AA
:100F1000070003AB83E8070050460A9900F0D4FAB3
:100F20008DE80700A0F500501F3800900398002DB1
:100F30000ADD42F21F014A460844002303A9039038
:100F4000684600F03DFD09E0A0F500504A461F3814
:100F5000002303A90390684600F047FD8DE80700D1
:100F60000004000C03D04FF0FF30410800E01046B1
:100F7000B8F1000F03D00022009215461EE0751E46
:100F800005D4FFF722FF303262556D1EF9D5B34606
:100F90000122084302D000227F1C04E02078302880
:100FA00001D100227F1E002A099784D01DE0112D57
:100FB00007DAFFF70AFF303262556D1C50EA010272
:100FC000F5D1084302D00098C8B10EE00021681E98
:100FD00005E0235C625C63542254401E491C81423C
:100FE000F7DBAB46A81B401E0990002004F80B005D
:100FF0000B98099AC0F80880C0E9002B7AE71126FF
:101000004FF0000857E72DE9F04F88460446D21DFF
:1010100022F0070191B0D1E90001CDE90A0108F001
:10102000B1FE02460B98C00F01D02D2007E02068CA
:10103000810701D52B2002E0202101EAC000032A0C
:10104000099001D0072A05DB03464146204600F0FF
:101050007BF90BE12078800601D5E06900E00620ED
:10106000B8F1650F814606D0B8F1660F18D0B8F117
:10107000670F70D131E00020B9F1110F009001DB52
:10108000112301E009F101030AAA01A90CA8FFF745
:10109000E2FEDDE90C70002609F10105834647E018
:1010A00001204B4600904FF000470AAA01A90CA866
:1010B000FFF7D1FEDDE90DB00C995D46002610B9B1
:1010C00009F101000D18B9EB050003D4C0F1FF369A
:1010D00009F10105A5EB09002BE0B9F1010F01DAD7
:1010E0004FF001090020B9F1110F0090484601DDD1
:1010F000112300E003460AAA01A90CA8FFF7ABFEE2
:10110000DDE90C704D4600268346207800070AD49E
:10111000AB4500DA5D4601A8012D04DD411911F847
:10112000011C302907D04F4502DA17F1040F04DA09
:10113000012082460FE06D1EEEE7002F02DCED1B62
:101140003E4403E0781CA84200DD7D1CB81B00F182
:10115000010A4FF000472078000703D4AA4501DBBD
:101160004FF0FF3A0021B7F1004F0DF143088DF821
:10117000431024D002202B23002F01DA7F422D239D
:101180000A21021EA0F1010000DC5FB197FBF1FC17
:1011900097FBF1F201FB1C7C17460CF1300C08F8B0
:1011A00001CDEEE7A8F1010003702188090501D502
:1011B000452100E06521A0F1010800F8011C099813
:1011C0000FA9A1EB0807FF1D00B10120411901EB98
:1011D000EA70A1693844081A401EA0612078C00650
:1011E00002D42046FFF7E2F8099828B1D4E901219A
:1011F0009047206A401C20622078C00622D52046F5
:10120000FFF7D4F81EE0002E04DBB34502DD01A891
:10121000805D00E03020D4E901219047206A401C25
:101220002062761CAAF101005FEA000A0AD100F0F0
:1012300087F8C0680168405CD4E901219047206AC2
:10124000401C2062281EA5F10105DCDC07E0D4E982
:10125000012118F8010B9047206A401C2062381EBB
:10126000A7F10107F3DC2046FFF7B6F8032011B021
:1012700041E610B5436913B1AFF3008001E0FFF719
:1012800077FC012010BD128800F124018284002225
:10129000C2840122EDE711684FF0FF32E9E7007BDD
:1012A00000F08000704770B516460C46054600F009
:1012B0003FF8036893F80101012806D0FF2C0FD8EE
:1012C000185D68B101202C7070BDD3F8070132465B
:1012D000214603F2071303442846BDE8704018472F
:1012E0004FF0FF3070BD754600F0EAF8AE460500DD
:1012F0006946534620F00700854618B020B5FEF732
:10130000E9FFBDE820404FF000064FF000074FF026
:1013100000084FF0000B21F00701AC46ACE8C00913
:10132000ACE8C009ACE8C009ACE8C0098D4670471C
:1013300010B500F005F8001D10BD00BF05EB000062
:101340000048704738CE00202DE9F0411F46044682
:1013500003260168072A01F4006004DB08B116A522
:1013600005E016A503E008B115A500E015A521F0DC
:1013700010002060A069C01EA0610FB1401EA061D6
:101380002046FFF713F84FB1D4E9012138469047C2
:10139000206A401C2062C01C206206E0206AFAE736
:1013A000D4E9012115F8010B9047761EF8D22046AA
:1013B000FFF712F8BDE8F0814E414E006E616E00FD
:1013C000494E4600696E66002DE9F0478146164693
:1013D0008AB0354878440DC88DE80D00324878440D
:1013E000801C03AC0DC884E80D0041F69B30084416
:1013F000372190FBF1F290FBF1F5A5F1800501FB9F
:1014000012041B3C02D56442012000E00020DFF8FA
:1014100098A080460027FA44AAF1BE0A0EE0E00731
:101420000AD03246684607EB470101230AEB8101E7
:1014300000F0DBFA8DE8070064107F1C002CEED171
:10144000194F7F44AE3F19E0E80715D007EB0410B1
:101450000DF1180A90E80E008AE80E00C068F0420C
:1014600001D1981908903246012306A903A800F07B
:10147000BCFA03AB83E807006D10641C002DE3D1B8
:101480004FF0010332466946B8F1000F03A802D0BD
:1014900000F096FA01E000F0A8FAC9E90001C9F8E5
:1014A00008200AB0BDE8F0879C2F010010B5044663
:1014B000AFF300802046BDE81040FEF7F6BE000006
:1014C0000048704718CE00205FEA400C08BF91F03A
:1014D000000F4FEA8C234FEAC12243EA51514FEAF1
:1014E0001C5018BF00F5F0404FEA300018BF41F023
:1014F00000415FEA6C5C00F02980BCF1FF3F08BF4F
:1015000040F080407047130C06BF12044FF0100CDF
:101510004FF0000C130E04BF12020CF1080C130F55
:1015200004BF12010CF1040C930F04BF92000CF1E4
:10153000020CD30F04BF52000CF1010C11464FF006
:101540000002A0F11F00A0EB0C00704711F0004F4B
:1015500008BF704731F000413FF4D5AF0B0C06BF18
:1015600009044FF0100C4FF0000C0B0E04BF0902E1
:101570000CF1080C0B0F04BF09010CF1040C8B0FCC
:1015800004BF89000CF1020CCB0F04BF49000CF121
:10159000010CCCF12003A0EB0C0022FA03F302FAB9
:1015A0000CF241EA030100F10100704720F07F4C8A
:1015B00080EA030023F07F47ACEB070303F57C537D
:1015C00000F0004003F1FF032DE980494FEA154B7D
:1015D00009B44FEA144325EA0B4E24EA03480FF2FC
:1015E000042606EB132749083E785FEA320203FB24
:1015F0000667C7F5000707FB06F64FEA54374FEAC0
:10160000D64606F1020607FB066CCCF1005C4FEAF9
:101610001C472CEA074C07FB06F40CFB06F504EB11
:1016200015464FEA961634BF00204FF000404FEAAF
:10163000D13706FB07FC4FEA1C4C0CFB0BF7D21B07
:1016400003FB0CF761EB07010CFB0EF7B0EB074057
:1016500072EB17420CFB08F734BFA2EB0742B2EB68
:10166000074261EB17414FEA0C444FEA910706FB32
:1016700007FC4FEA1C4C0CFB0BF7B0EBC74072EBBE
:10168000573203FB0CF734BFA2EBC742B2EBC742A1
:1016900061EB57310CFB0EF7B0EBC70072EB5772E2
:1016A0000CFB08F734BFA2EBC702B2EBC70261EB39
:1016B0005771039F4FEA816141EA921104EBCC0418
:1016C0004FEAD1374FEA826206FB07FC42EA9012EA
:1016D0004FEA80604FEA1C4C0CFB0BF7D21B03FB5C
:1016E0000CF761EB07010CFB0EF7B0EB074072EB58
:1016F00017420CFB08F734BFA2EB0742B2EB0742DC
:1017000061EB17414FEA8C554FEA910704EB9C249B
:1017100006FB07FC4FEA1C4C0CFB0BF7B0EBC74079
:1017200072EB573203FB0CF734BFA2EBC742B2EBAC
:10173000C74261EB57310CFB0EF7B0EBC70072EB01
:1017400057720CFB08F734BFA2EBC702B2EBC7021B
:1017500061EB577115EB4C254FEA816141EA92111B
:101760004FEA82624FEAD13742EA901206FB07FC49
:1017700044F100044FEA80604FEA1C4C0CFB0BF76D
:10178000D21B03FB0CF761EB07010CFB0EF7B0EB70
:10179000074072EB17420CFB08F734BFA2EB07427D
:1017A000B2EB074261EB174115EB1C154FEA813193
:1017B00041EA92414FEA823242EA90424FEA803057
:1017C0004FEA0C7644F1000448EA03434EEA0B4822
:1017D0004FF0000EB2EB080C71EB030724BF62461A
:1017E00039464EEB0E0E4FF0000B001852414941A6
:1017F0004BEB0B0BB2EB080C71EB03077BF1000B0F
:1018000024BF624639464EEB0E0E4FF0000B001817
:10181000524149414BEB0B0BB2EB080C71EB030748
:101820007BF1000B24BF624639464EEB0E0E51EAA7
:10183000020718BF46F0010616EB0E7655F10002BE
:1018400054F1000103D5BDE88901BDE80088BDE879
:101850008901BDE80048B619524141EB0101A3F1ED
:101860000103704780807F7E7D7C7B7A79787776F4
:1018700076757473727171706F6E6E6D6C6C6B6A6D
:101880006A6968686766666564646363626161600B
:10189000605F5F5E5E5D5D5C5C5B5B5A5A59595888
:1018A00058575756565555555454535352525251F2
:1018B000515050504F4F4F4E4E4D4D4D4C4C4C4B48
:1018C0004B4B4A4A4A49494948484847474747468F
:1018D00046464545454444444443434343424242CB
:1018E00042414141002B9C4630D477002BD01CB59F
:1018F0004FEA370703B44FF010004FF01001BAF170
:10190000000F06D0BCF1000FDCBF40F0080040F033
:1019100008014FF000000FBCBDE810400BF1010BB7
:10192000BBF1010F08BF5FEA170722BF12F10102E6
:1019300011F101014FF0004143F1000300F00040BC
:1019400043EA00007047F9D35708D0E746EA064655
:1019500013F1400F4FEA16461FDD13F1200FDFBFD2
:1019600016430A46002120335B42BED0C3F1200754
:1019700046EA064602FA07F74FEA164646EA07061F
:10198000C3F1200722FA03F201FA07F721FA03F163
:101990004FF0000342EA0702A7E746EA020646EADA
:1019A00006464FEA164646EA0106BCBF46EA064628
:1019B000360C4FF000034FF000024FF0000194E7A7
:1019C0002DE9804C9A46934670B491E8380007C8D8
:1019D00031EA400C48BF34EA430C03D5FFF7E6FD7B
:1019E000FFF780FFF0BCBDE8008C2DE9804C9A46E3
:1019F000934670B491E8380007C810F0804F08BFD4
:101A000013F0804F03D100F005F8FFF76BFFF0BC37
:101A1000BDE8008C20F07F4780EA030023F07F4C74
:101A200007EB0C03A3F57C5300F00040A3F1FE0389
:101A300092F0000F00F0B38095F0000F00F0778077
:101A40002DE901494FEA11404FEA144621EA0048C6
:101A500000FB06FC24EA064708FB06F607FB08F82D
:101A600000FB07F718EB06484CEB164C4FEA124BFD
:101A700018EB07484FEA15464CEB174022EA0B4E8D
:101A80000BFB06FC25EA06470EFB06F607FB0EFEDF
:101A90000BFB07F71EEB064E4CEB164C4FF0000607
:101AA0001EEB074E4CEB174B18EB0B0840F10000F8
:101AB00018EB0E0B58EB000840F100008F1A4FF0A6
:101AC00000013CBFC943661B14BFB5EB040C0021E9
:101AD0003CBFC943F61B4FEA17444EEA8E0E27EA75
:101AE00004454FEA1C4704FB07622CEA074C05FB40
:101AF00007F70CFB05F604FB0CFC16EB074642EB64
:101B0000174216EB0C4642EB1C421BEB060658EB49
:101B10000202414146EA9E0601D5BDE80189B61997
:101B2000524141EB0101A3F10103BDE801894FEAF4
:101B300014454FEA114724EA054621EA074C05FB04
:101B400007F406FB07F70CFB06F105FB0CFC11EB99
:101B5000074144EB17444FEA124711EB0C4144EBA9
:101B60001C4422EA074C05FB07F206FB07F70CFBB7
:101B700006F605FB0CFC16EB074642EB174216EB8C
:101B80000C4642EB1C456A1854F1000148BF7047EF
:101B9000B619524141EB0101A3F10103704795F0E1
:101BA000000F37D04FEA11424FEA144721EA0246AC
:101BB00024EA074C02FB07F106FB07F70CFB06F4CF
:101BC00002FB0CFC14EB074441EB17414FEA1547AD
:101BD00014EB0C4441EB1C4125EA074C02FB07F5D2
:101BE00006FB07F70CFB06F602FB0CFC16EB0746A0
:101BF00045EB174516EB0C4645EB1C42121951F10B
:101C0000000148BF7047B619524141EB0101A3F1F1
:101C1000010370474FEA14454FEA114724EA05468D
:101C200021EA074C05FB07F106FB07F70CFB06F260
:101C30004FF0000605FB0CFC12EB074241EB17418D
:101C400012EB0C4251EB1C4148BF7047921841EB1C
:101C50000101A3F1010370472DE9F84F0024254647
:101C600003F070FF002110238FA2084604F0EAF869
:101C7000102390A21421002004F0E4F804F02CF8C2
:101C800006F05AFDDFF83C928F4F4FF0100A4FF6E6
:101C9000FF7B00264FF00108002001F09BFB042889
:101CA00076D0022808D00128F6D1052C43D2DFE8EF
:101CB00004F01B4370AEB5006D1CB9F80000ADB266
:101CC000A84200D8002503232A4614215020CDF82D
:101CD00000A004F07BF803F0FFFF584601F0E0FBA2
:101CE000012008F06BFED7E70C2378A22821002002
:101CF00004F0A8F803F0F0FF06F048FD04F0ADFA98
:101D0000002818D1C7F8A081012004F088FAC7F88C
:101D1000A0610028F5D10C2372A2282104F092F8CA
:101D20000C2376A22821002004F08CF803F0D4FFC5
:101D300006F04EFD012477E00C236AA22821002042
:101D400004F080F80C2371A22821002004F07AF816
:101D500003F0C2FF06F05AFD04F07FFA002863D1B9
:101D6000C7F8A081022004F05AFAC7F8A061002841
:101D70005AD10C235BA2282104F064F80C2368A23A
:101D80002821002004F05EF803F0A6FF02244BE0B7
:101D900087E00C2353A22821002004F053F80C23E1
:101DA00063A22821002004F04DF803F095FF06F00F
:101DB00065FD04F0E5FA04464FF4FA6008F0FEFD14
:101DC0004FF00C0347A24FF028014FF0000064B120
:101DD00004F038F80C235AA22821002004F032F82D
:101DE00003F07AFF06F098FD14E004F02BF80C23C2
:101DF00057A22821002004F025F803F06DFF06F01B
:101E00005BFD03244FF4966008F0D8FD0CE004F06D
:101E100041FB08B10024F5E70424F3E7294602203A
:101E200004F052FB28B100244FF47A7008F0C6FD8C
:101E30003BE74A4804F072FB0C232AA22821002029
:101E400004F000F80C2346A22821002003F0FAFF3A
:101E500003F042FF584601F023FB45491F201023A1
:101E600008803FA232211E20009607F06BF9102354
:101E700040A246211E20009607F064F93749CDF8AC
:101E800000A0891EB9F8000049880323421A4621A0
:101E9000642003F06FFDBDE8F84F4FF4FA6008F0DE
:101EA0008DBDBDE8F88F00004164642066696E67EF
:101EB0006572000046696E6765722049443A2020C9
:101EC00030000000F81B002000802142506C65614A
:101ED00073652050726573732046696E6765722E54
:101EE0000000000020202020202020202020202072
:101EF00020202020202020200000000046696E675E
:101F000065722031206973204F4B2E00507265732B
:101F1000732066696E67657220616761696E2E0065
:101F200046696E6765722032206973204F4B2E0020
:101F3000436F6D706172696E672E2E2E0000000077
:101F40004572726F722066696E67657221000000CB
:101F50005375636365737321000000004C0000201B
:101F600046696E6765722053617665204F4B21008C
:101F7000260000204361703A0000000038B50121BE
:101F8000082004F0E9FC4FF48074ADF80040102004
:101F90008DF803000320064D8DF80200694628469F
:101FA00000F0F2FF2146284601F06FF838BD00002E
:101FB000000C014010B5012004F0E6FCBDE8104023
:101FC000002004F0E1BC000008B50249084400907C
:101FD000008808BD006C004008B5024A104400901B
:101FE000016008BD006C004038B50121402004F0BC
:101FF000B3FC0121084604F0AFFC0121124801F0B6
:1020000011F80820ADF8000010208DF803000F4DE6
:1020100003248DF802406946284600F0B5FF0C48BD
:102020000121C0F8BC110220ADF8000028208DF875
:1020300003008DF802406946284600F0A5FF4FF4E2
:10204000E13007F05DFB38BD0002300000180140B0
:1020500000002142002425461CA0FEF785F9DFF888
:102060008090204E00274FF00108002001F0B2F9C7
:10207000022805D125B100F0A9F8002000F0ACF845
:1020800000F048F8D9F8100138B13078012568B966
:1020900086F80080777014A006E07078002528B9D3
:1020A00086F80180377015A0FEF75EF9641CE4B273
:1020B000142C06D116480024D0F89411C943C0F856
:1020C00094110A2008F07AFCCFE700000D0A4B4576
:1020D00059313AB7A2CBCDCAFDBEDD0D0A000000D2
:1020E00000002142040200200D0A626C6520636F2B
:1020F0006E6E656374210D0A000000000D0A626CAB
:102100006520646973636F6E6E656374210D0A00E8
:10211000000023422DE9F0412048002401880904F1
:1021200039D501881E4FC1F30E05A04607F805807A
:10213000A0F800801BA0FEF717F91B4E0BE0402112
:10214000304607F01DFC0028F9D0395D304607F015
:10215000AFFC641CA4B2AC42F1D314A11048FEF74A
:10216000BFFA154C08B1082D07D014A10C48FEF792
:10217000B7FA38B1092D02D004E0404600E0012052
:10218000C4F8940129460648FEF750FBBDE8F0412B
:102190000DA0FEF7E9B8BDE8F08100005000002076
:1021A000101C0020523A0000003801402B4C4544DE
:1021B000303A4F4E00000000008021422B4C454435
:1021C000303A4F46460000000D0A00004F210148FA
:1021D00007F06EBC0044004070B58109002200F099
:1021E0001F0042EA411101430B4E0C46304607F0F6
:1021F0005FFC0A4D4021284607F0C2FB0128F9D1B7
:10220000210A304607F054FC4021284607F0B8FB6D
:102210000128F9D170BD00000044004000380140A1
:102220007CB55A4C0026C4F89461052258A159A0E7
:1022300007F0D0FE10B958A0FEF796F858A25BA19F
:102240005D48FEF79DF80A2251A15B4807F0C2FEE7
:10225000594900287ED059A0FEF786F850A25AA10D
:102260005548FEF78DF80A2249A1534807F0B2FEFF
:102270005149002877D051A0FEF776F8062255A1E3
:102280004D48FEF77DF80A2241A14B4807F0A2FE17
:102290004949002869D049A0FEF766F80125CDE933
:1022A000006508234FF4E1324DA14348FEF768F87A
:1022B0000A2237A1404807F08DFE3F49002856D03A
:1022C0003EA0FEF751F805224AA13B48FEF758F818
:1022D0000A222FA1384807F07DFE3749002848D050
:1022E00036A0FEF741F80A2229A146A007F072FEA7
:1022F000002840D048A0FEF737F80A2224A14DA0BC
:1023000007F068FE002838D04DA0FEF72DF80A220D
:102310001FA151A007F05EFE002830D053A0FEF7A9
:1023200023F80A221AA159A007F054FE002828D049
:102330005AA0FEF719F853225EA11F48FEF720F8B5
:102340000A2213A11C4807F045FE1B4900281AD099
:102350001AA001E005E006E0FEF706F8C4F8945183
:102360007CBD57A078E756A086E755A094E754A017
:10237000A7E753A0B5E755A0BDE75AA0C5E75EA003
:10238000CDE764A0D5E74EA0E3E70000008021423E
:102390004F4B0000415400004154204F4B0D0A00A8
:1023A00041544B2D424C45303100000041542B4EDE
:1023B000414D453D25730000E4CD002025732020CC
:1023C0004552524F520D0A0041542B48454C4C4F38
:1023D0003D25730041542B54504C3D2564000000B2
:1023E00041542B554152543D25642C25642C2564C1
:1023F0002C25640041542B41445054494D3D2564E3
:102400000000000041542B4C494E4B504153534562
:102410004E3D4F464600000041542B4C494E4B5018
:10242000415353454E3D4F464620204552524F5250
:102430000D0A000041542B4C4544454E3D4F4E0083
:1024400041542B4C4544454E3D4F4E202045525261
:102450004F520D0A0000000041542B534C41564589
:10246000534C454550454E3D4F46460041542B5335
:102470004C415645534C454550454E3D4F464620F0
:10248000204552524F520D0A0000000041542B4D7E
:1024900041585055543D4F464600000041542B4D85
:1024A00041585055543D4F464620204552524F52B8
:1024B0000D0A000041542B4D4F44453D256300005B
:1024C000257320204F4B0D0A0000000041542B4C77
:1024D000494E4B50415353454E3D4F464620204FA9
:1024E0004B0D0A0041542B4C4544454E3D4F4E2068
:1024F000204F4B0D0A00000041542B534C415645D0
:10250000534C454550454E3D4F464620204F4B0DC0
:102510000A00000041542B4D41585055543D4F4640
:102520004620204F4B0D0A00FFF75EFDFFF778FEB7
:10253000FFF790FDFEE700002DE9F0410C4D00246F
:102540002646C5F894410B4FD7F8000158B1641CDA
:10255000E4B21E2008F032FA642CF5D3C5F8946179
:102560000120BDE8F0810120C5F894010020F8E7C2
:10257000008021420000214270B500254FF48034D4
:1025800005E0802004F098FE08B144B101E0641E2B
:10259000F7D240F2FF5004F04BFE284670BD0320F6
:1025A00070BD000070B5124C0546616B11F0450F0F
:1025B000FBD0042004F080FE20B1042004F038FE9B
:1025C000032070BD012004F077FE20B1012004F04B
:1025D0002FFE012070BD2069A84201D0102070BDDF
:1025E00040F2FF50A063606900F0080070BD000079
:1025F0000080014010B500244FF480310E4809E0FE
:10260000426B12F0450F05D009B1500705D50324E0
:1026100004200CE0491EF3D2F7E7012004F04CFE41
:1026200018B10124204604F003FE40F2FF5004F0EC
:10263000FFFD204610BD00000080014010B50A4992
:10264000486B10F0450FFBD0042004F035FE20B19C
:10265000042004F0EDFD032010BD40F2FF5004F013
:10266000E7FD002010BD0000008001402DE9F04191
:102670001B4C0E4607460025606B10F0450FFBD043
:10268000042004F019FE28B1042004F0D1FD032039
:10269000BDE8F081012004F00FFE20B1012004F01C
:1026A000C7FD0120F4E72069B84210D140F2FF5085
:1026B00004F0BEFD626912F4604F03D0900404D5AB
:1026C0001320E5E7100C308007E0500401D51020FE
:1026D000DEE7100401D50F20DAE72846D8E700002E
:1026E0000080014010B500244FF480320B4809E00F
:1026F000416B11F0450F05D00AB1480705D50324F9
:10270000042006E0521EF3D2F7E7480603D5002462
:10271000402004F08DFD204610BD000000800140E7
:102720000029016802D041F0010102E04FF6FE727B
:10273000114001607047000001684FF6FE721140C1
:1027400001600021016041608160C1603149314A0E
:102750000839904203D1486840F00F0006E02D4A46
:102760001432904204D1486840F0F000486070474D
:10277000284A2832904203D1486840F47060F5E757
:10278000244A3C32904203D1486840F47040EDE75F
:10279000204A5032904203D1486840F47020E5E767
:1027A0001C4A6432904203D1486840F47000DDE76F
:1027B000184A7832904203D1486840F07060D5E7FB
:1027C000154A111F904203D1086840F00F0006E03F
:1027D000114A1432904204D1086840F0F0000860B9
:1027E00070470D4A2832904203D1086840F4706067
:1027F000F5E7094A3C32904203D1086840F4704042
:10280000EDE7054A50329042EAD1086840F4702062
:10281000E5E70000080002400804024030B5026805
:1028200047F6F0739A430C6A8B682343D1E9044559
:102830002C4323438C692343CC6923434C6A2343B1
:102840008C6A234313430360CA6842600A6882604B
:102850004968C16030BD7047F8B5002403F072F9D3
:102860000021102320A2084603F0ECFA102323A233
:102870001421002003F0E6FA03F02EFA06F07CF8AB
:10288000204D1026002000F0A5FD04282BD00228A2
:1028900007D00128F6D10121204603F077FC80B152
:1028A00019E0641C2888A4B2A04200D800240323A5
:1028B000224614211820009603F088FA03F00CFA3F
:1028C000E0E70C2310A22821002003F0BBFA03F05C
:1028D00003FA06F07BF84FF4966008F06FF8BDE855
:1028E000F84003F0F9B9F8BD44656C65746520469D
:1028F000696E6765722E2E2E0000000049443A2052
:1029000020300000F81B002044656C657465204F82
:102910004B21000010B5012000F0A2F8FFF70CFEDB
:10292000002803D0BDE8104006F045BC10BD0000F3
:1029300010B50A2008F042F80421094800F09EFB77
:1029400030B90849D1F8940138B10020C1F8940198
:10295000BDE81040042000F083B80120F6E7000035
:10296000001801400080214210B50A2008F026F826
:102970000821094800F082FB30B90849D1F89401D8
:1029800038B10020C1F89401BDE81040082000F0E3
:1029900067B80120F6E7000000180140000023425C
:1029A00010B50A2008F00AF81021094800F066FB6B
:1029B00030B90849D1F8940138B10020C1F8940128
:1029C000BDE81040102000F04BB80120F6E70000F1
:1029D00000180140008021423EB50821002000F08F
:1029E000BFFA4FF48070002400908DF80440082056
:1029F0008DF8050001258DF80650684600F046F870
:102A000017208DF808008DF809408DF80A408DF8E0
:102A10000B5002A803F05AF83EBD000010B54FF469
:102A20008074204600F022F801280DD1094A0020C8
:102A3000C2F898010121C2F898110748C0F88C111A
:102A400006480178491C01702046BDE8104000F09E
:102A500007B8000000802242008021423C00002094
:102A6000014908607047000014040140064A01460D
:102A700000201268044B0A4014331B680B4202D03A
:102A8000002A00D0012070470004014030B51A4AE6
:102A90008379016853B313688B431360111D0B686E
:102AA0000468A3430B60017911440B680468234355
:102AB0000B60114B083319680468A14319601C1D91
:102AC00021680568A94321604179102905D0114486
:102AD0000A68006802430A6030BD19680268114341
:102AE0001960216800680143216030BD00791044FD
:102AF00002688A43026030BD0004014021283CD2B4
:102B0000DFE800F011131517191B1D1F21232527BE
:102B10003B3B3B3B27293B3B3B2B3B3B2D2F313367
:102B2000353B3B37390016A0704716A0704719A0F7
:102B300070471DA0704721A0704728A070472FA0A4
:102B4000704735A0704742A0704744A0704747A027
:102B500070474AA070474DA0704750A0704758A0DA
:102B600070475BA070475DA0704760A0704764A08D
:102B7000704768A070476AA070476CA0704700005B
:102B80004F4B0000CAFDBEDDB0FCBDD3CAD5B4EDCD
:102B9000CEF30000B4ABB8D0C6F7C9CFC3BBD3D017
:102BA000CAD6D6B800000000C2BCC8EBD6B8CEC6A4
:102BB000CDBCCFF1CAA7B0DC00000000D6B8CEC6AD
:102BC000CDBCCFF1CCABB8C9A1A2CCABB5ADB6F8FA
:102BD000C9FAB2BBB3C9CCD8D5F70000D6B8CEC6B7
:102BE000CDBCCFF1CCABCAAAA1A2CCABBAFDB6F892
:102BF000C9FAB2BBB3C9CCD8D5F70000D6B8CEC697
:102C0000CDBCCFF1CCABC2D2B6F8C9FAB2BBB3C916
:102C1000CCD8D5F700000000D6B8CEC6CDBCCFF1D9
:102C2000D5FDB3A3A3ACB5ABCCD8D5F7B5E3CCAB4E
:102C3000C9D9A3A8BBF2C3E6BBFDCCABD0A1A3A965
:102C4000B6F8C9FAB2BBB3C9CCD8D5F700000000BA
:102C5000D6B8CEC6B2BBC6A5C5E40000C3BBCBD1B7
:102C6000CBF7B5BDD6B8CEC600000000CCD8D5F79E
:102C7000BACFB2A2CAA7B0DC00000000C9BEB3FD43
:102C8000C4A3B0E5CAA7B0DC00000000C7E5BFD50B
:102C9000D6B8CEC6BFE2CAA7B0DC0000BBBAB3E567
:102CA000C7F8C4DAC3BBD3D0D3D0D0A7D4ADCABC85
:102CB000CDBCB6F8C9FAB2BBB3C9CDBCCFF10000E8
:102CC000B6C1D0B420464C41534820B3F6B4ED0011
:102CD000CEB4B6A8D2E5B4EDCEF30000CEDED0A7D8
:102CE000BCC4B4E6C6F7BAC500000000BCC4B4E674
:102CF000C6F7C9E8B6A8C4DAC8DDB4EDCEF3000063
:102D0000BCC7CAC2B1BED2B3C2EBD6B8B6A8B4ED86
:102D1000CEF30000D6B8CEC6BFE2C2FA0000000073
:102D2000B5D8D6B7B4EDCEF300000000C4A3BFE918
:102D3000B7B5BBD8C8B7C8CFC2EBD3D0CEF300006D
:102D40008000A0F1C0400029016802D041F00101DB
:102D500001E0024A1140016070470000FEFF0F00D1
:102D600010B5D0E901121143D0E903231A431143EE
:102D70004269114382691143C2691143026A1143D6
:102D8000426A1143826A1143C26A1143026B1143C2
:102D900002689200A2F1C04211608168082907D13F
:102DA00001688900A1F1C0410A6842F040020A604E
:102DB000416BD1E9002342EA03128B688C891B0224
:102DC00043EA04431A430B8A42EA03520B7D8969A2
:102DD00042EA03620A4301688900A1F1C0414A60E6
:102DE000C16AB1F5804F08D000686FF07041800073
:102DF000A0F1C040C0F8041110BD816BD1E90023DF
:102E000042EA03128B680C8A1B0243EA04531A43FA
:102E10000B7D896942EA036200680A438000A0F1E1
:102E2000C040C0F8042110BD2DE9FC470024494FE3
:102E300000944FF0080A019410204FF04009C7F8A1
:102E400000A0C7E901094FF48068C7E903480E46AE
:102E50002546384604F060FA1020FFF7A3FB00284F
:102E60004DD13D480089000438603720C7E9010989
:102E7000C7E90358384604F04FFA3720FFF792FBB2
:102E800000283CD1411E07F11400C0E9001A30218E
:102E900081600221C0E903150121416104F0E4F9D8
:102EA0003320C7F80890C7E90050C7E903583846EF
:102EB00004F032FA3320FFF775FB05001FD1DFF86D
:102EC0009C804FF4001A6F4640F22A69D8F834000B
:102ED00010EA090F0BD1504604F0EEF90028F5D0A6
:102EE00004F014FA47F82400641C022CEED30820E6
:102EF00004F0E2F928B1082004F09AF90420BDE8B2
:102F0000FC87022004F0D8F920B1022004F090F9E7
:102F10000220F4E7202004F0CFF920B1202004F0B3
:102F200087F90620EBE74FF40074204604F0C4F95B
:102F300020B1204604F07CF90720E0E740F2FF5082
:102F400004F076F9009800BA7060019800BA306019
:102F50002846D4E7301200202C00002000800140D9
:102F600010B58A0721F003040649120F21440F23EC
:102F70008C6893409C438C608B68904003438B60CB
:102F800010BD000000000140F0B5CC78002204F034
:102F90000F03E40601D58C7823430C784FF00F0C17
:102FA00014F0FF0F4FF0010E1BD005680E880EFACB
:102FB00002F42640A64210D196000CFA06F725EA44
:102FC000070703FA06F5CE783D43282E02D0482E97
:102FD00002D002E0446100E00461521C082AE5D3FB
:102FE00005600A88FF2A1CD94468002202F10806FD
:102FF0000EFA06F50E882E40AE420ED196000CFA5F
:1030000006F7BC4303FA06F7CE783C43282E00D1DE
:103010004561CE78482E00D10561521C082AE5D3BF
:103020004460F0BDF0B5144C002801DAE36900E01B
:103030006368450D2E0185B2C0F30157B540C0F35A
:103040000342032F05D0C6020AD503269640B34398
:1030500007E023F07062636823F07063636002E04E
:10306000AB4343F0706201B12A43002801DAE26108
:10307000F0BD6260F0BD000000000140024600208B
:1030800092680A4200D00120704741617047016197
:103090007047000030B40C4601461546500700D07A
:1030A000012000EBD5006843C2B208784B78812834
:1030B00009D3402B07D3FF2B05D0FF2803D07F2B4C
:1030C0000CD2403B0BE00023184603E05B1C04F8E5
:1030D000010BDBB29342F9D330BC7047413B8138DE
:1030E000D9B2C0B2C0EB401303EB801001EB40003B
:1030F00050430A490C2D0AD0102D0BD0182DEBD1BE
:10310000D1F819100144204630BC06F02FBDD1F88B
:103110000910F7E7D1F81110F4E7000084CD002082
:10312000FEE7000038B50121802003F015FC4FF4C4
:103130008050ADF8000003208DF8020010200B4CE9
:103140008DF8030069462046FFF71EFF4FF48041CB
:10315000ADF8001069462046FFF716FF044801212C
:10316000C0F8B011C0F8B81138BD0000001C014013
:10317000008023422DE9F041054604F001F8114E8C
:103180000027C6F8B0713C464FF00108280602D56A
:10319000C6F8B88101E0C6F8B8716806050E0120CE
:1031A00007F026FCC6F8B081012007F021FCC6F824
:1031B000B071012007F01CFC641CE4B2082CE5D3BC
:1031C000BDE8F0810080234270B503F0D9FF084CC0
:1031D0000120C4F8B801C4F8B00104F5D87407F0B0
:1031E00007FC0025A560012007F002FC256070BDEA
:1031F0000080234270B503F0C3FF0A4C0020C4F8DE
:10320000B001C4F8B8010125C4F8B051284604F54E
:10321000D87407F0EDFBA560BDE87040012007F011
:10322000E7BB00000080234270B50F4D002401264B
:10323000C5F8B861304607F0DBFB03F091FFC5F835
:10324000B061012007F0D4FB07E0641CE4B2FA2C63
:1032500003D9FFF7CFFF012070BDD5F83801002852
:10326000F3D1C5F8B00170BD0080234272B670473B
:1032700062B670477CB5054600211E480091019159
:10328000008902041C4802600D2242604022C0E90D
:1032900002211101016104F03FF8184C606B0190AC
:1032A000014601E0616B019111F0450FFAD0012058
:1032B00004F002F820B1012003F0BAFF01207CBD28
:1032C000042003F0F9FF20B1042003F0B1FF032034
:1032D0007CBD20690D2801D010207CBD40F2FF503C
:1032E00003F0A6FF60690090C0F34320287000201F
:1032F0007CBD00002C000020301200200080014026
:1033000081070CD16421B0FBF1F201FB120141B93C
:103310004FF4C871B0FBF1F201FB120008B10020BC
:1033200070470120704700007CB50446EF208DF8FF
:10333000000001208DF801001448154E0068010EB0
:103340008DF80210010C8DF80310010A8DF804109D
:103350008DF8050007208DF8060000258DF8075030
:1033600035800CE0012007F029FB3088000406D5E9
:10337000358069460748FDF7B3F9002804D1641E7B
:103380002404240CEED100207CBD00004400002069
:1033900048000020D818002008B50121442003F07F
:1033A000DBFA1C20ADF8000048208DF803006946C8
:1033B0000648FFF7E9FD0120ADF8000028208DF850
:1033C000030069460248FFF7DFFD08BD0018014011
:1033D000000801402DE9F0412E4C2F4F2F4D0126C2
:1033E00008B1267001E02078A0B110212846FFF72F
:1033F00045FEB0B108212846FFF740FE88B1042100
:103400002846FFF73BFE60B101213846FFF736FE44
:10341000012806D010212846FFF730FE012824D0CD
:1034200035E00A2007F0CAFA002020701021284653
:10343000FFF724FE80B108212846FFF71FFE70B178
:1034400004212846FFF71AFE58B101213846FFF73C
:1034500015FE012807D01AE00120BDE8F081022006
:10346000FBE70320F9E70420F7E708212846FFF7E8
:1034700005FE01280BD104212846FFF7FFFD012896
:1034800005D101213846FFF7F9FD00B9267000206B
:10349000E3E700002400002000080140001801407C
:1034A00070B509490646002408884D8821464543E1
:1034B000204602F007F902F0C3FA044801E0068052
:1034C000641CAC42FBD370BD080200200008006CF5
:1034D0002DE9F04F2B4B2C27194698712B25898805
:1034E0004FF4305A4FF4285B4FF4487441F6631E92
:1034F0002A264FF0F00845F210594FF4A07C4FF403
:10350000F072C8B1A3F800C0A3F80280494533D1D6
:10351000A3F808A0A3F80AB0280298811C805A805A
:10352000A1F5A640103802D11A80A3F802C0BDE868
:10353000F04F002002F024B8A3F80080A3F802C0E6
:10354000494507D1A3F808A0A3F80AB04FF42C50BE
:10355000988104E071451F8104D15D819E811A80AC
:103560005C8001E05E819D81A1F5A6401038DED12E
:10357000A3F800C05A80DAE71F815E8171459D8102
:10358000CCD0CDE7080200202DE9F047DFF89C9071
:1035900092464A46B9F80460DFF894C093890C0A51
:1035A000050A5289A6F5A0480CF10207B8F5A268F1
:1035B0000CD0A6F5C858B8F1630816D0ACF80020B6
:1035C0003D80C0B23880ACF8003024E0ACF8002078
:1035D0003D80521CACF80020C0B23880ACF80030FE
:1035E0003C805B1CACF8003016E099F8066026B908
:1035F000B9F80050281A401E80B2ACF80020020A28
:103600003A80C5B23D803A80C0B23880ACF8003014
:103610003C80C8B238803C80C8B23880B9F8080015
:10362000ACF80000A7F800A0BDE8F0870802002071
:10363000FE07006C2DE9F0438146A2EB0900401C17
:103640001F460C4685B2DFF83080079E0FE021460A
:10365000484602F037F802F0F3F90020414602E054
:103660000E80401C80B2A842FAD3641CA4B2BC42B3
:10367000EDD9BDE8F08300000008006C2DE9F04FA3
:1036800001219FB0080203F043F901214FF4B47007
:1036900003F062F90120ADF83C0010208DF83F00E6
:1036A00003248DF83E400FA9FE48FFF76DFC4CF255
:1036B0003370ADF83C0018258DF83F508DF83E4032
:1036C0000FA9F948FFF760FC4FF68070ADF83C0099
:1036D0008DF83F508DF83E400FA9F448FFF754FC99
:1036E00041F20100ADF83C008DF83F508DF83E40AE
:1036F0000FA9EF48FFF748FC0120179000200F2189
:10370000CDE918011A901B901C901D901090CDE9E6
:103710001104149015900621CDE900101690102187
:10372000CDE90201139004900902CDE90801069049
:10373000059007908900CDE90A010C9017A80D901B
:1037400010A80E906846FFF70BFB01210620FFF73B
:10375000F7FA322007F032F9D64CD320208001F05E
:10376000B3FED54DA88001F0AFFE2946888001F058
:10377000ABFE4FF6FF77294607EA0020888001F06C
:10378000A3FE294649F2413A898847F289760843DF
:10379000294645F21038888045F2105941F6631BDE
:1037A000504572D00420208001F08EFEA88001F0E8
:1037B0008BFEA88001F088FE07EA0020A88001F0B7
:1037C00083FEA9880843A0F50541A880523958D046
:1037D000B0425AD0D420208001F076FEA88001F0BB
:1037E00073FEA88001F070FE07EA0020A88001F0B7
:1037F0006BFEA9880843A880404546D055214FF468
:10380000704002F027F9AA214FF2010002F022F9DC
:1038100052214FF2020002F01DF908214FF203007D
:1038200002F018F901214FF2040002F013F94FF4ED
:103830004540208001F048FE07EA0020A8804CF2B5
:103840000150208001F040FEA9880843A88005208F
:1038500007F0B4F8A988494517D0A120208001F0CD
:1038600033FEA88001F030FE07EA0020A88001F0B6
:103870002BFEA9880843A0F5AE41A880613902D08B
:1038800003E0AE8001E0A5F804B0A9888BA0FCF7A6
:103890006BFDA888874DAD1C50457DD1CF20208081
:1038A00000202880C120288030202880ED20208022
:1038B00064202880032028801220288081202880EE
:1038C000E820208085202880102028807A202880E9
:1038D000CB202080392028802C20288000202880A0
:1038E0003420288002202880F72020802020288073
:1038F000EA202080002028802880C02020801B20F3
:103900002880C120208001202880C52020803020F0
:1039100028802880C7202080B7202880362020805B
:10392000482028803A20208055202880B1202080FF
:10393000002028801A202880B62020800A20288095
:10394000A2202880F22020800020288026202080AD
:1039500001202880E02020800F2028802A20288035
:1039600028202880082028800E20288008202880F1
:1039700054202880A9202880432028800A202880DD
:103980000F20288000202880288028802880E1209F
:1039900020800020288000E031E0152028801720BA
:1039A00028800720288011202880062028802B20AE
:1039B0002880562028803C20288005202880102040
:1039C00028800F2028803F20288028800F202880F2
:1039D0002B202080002028802880012028803F2064
:1039E00028802A2020800020288028802880EF201E
:1039F000288011202080782006F0E0FF9EE0B04271
:103A00007ED111202080782006F0D8FF362020803B
:103A1000002028803A20208005202880B2202080A5
:103A20000C202880288000202880332028802880AF
:103A3000B720208035202880BB202080322028809D
:103A4000C02020800C202880C220208001202880D7
:103A5000C320208010202880C4202080202028809F
:103A6000C62020800F202880D0202080A4202880FD
:103A7000A1202880E0202080D020288000202880DD
:103A800002202880072028800A20288028202880DB
:103A90003220288044202880422028800620288048
:103AA0000E2013E0000C01400014014000180140FA
:103AB00000200140FE07006C08020020204C434417
:103AC0002049443A25780D0A000000002880122081
:103AD00028801420288017202880E1202080D020F2
:103AE00028800020288002202880072028800A20A3
:103AF000288028202880312028805420288000E039
:103B00001FE0472028800E2028801C2028801720B6
:103B100028801B2028801E2028802A20208000202A
:103B2000288028802880EF2028802B2020800020DB
:103B300028802880012028803F202880292001F02B
:103B40002EBC40457ED1ED20208001202880FE2023
:103B50002880EE202080DE20288021202880F1206F
:103B6000208001202880DF20208010202880C42091
:103B700020808F202880C620208000202880E220FE
:103B8000288028802880BF202080AA202880B0207C
:103B900020800D202880002028800D2028800020F3
:103BA00028801120288000202880192028800020CB
:103BB000288021202880002028802D202880002097
:103BC00028803D202880002028805D20288000203B
:103BD00028805D20288000202880B120208080203F
:103BE0002880002028808B20288000202880962094
:103BF000288000202880B220208000202880288073
:103C0000022028800020288003202880002028808F
:103C1000B3202080002028802880288028802880C9
:103C20002880288028802880288028802880288054
:103C30002880288028802880288028802880288044
:103C4000288000E0FEE328802880B42020808B209C
:103C50002880002028809620288000202880A1200D
:103C6000288000202880B520208002202880002085
:103C7000288003202880002028800420288000201D
:103C80002880B6202080002028802880B72020802F
:103C90000020288028803F202880002028805E2067
:103CA00028800020288064202880002028808C2004
:103CB000288000202880AC20288000202880DC205C
:103CC00028800020288070202880002028809020D4
:103CD000288000202880EB20288000202880DC20FD
:103CE000288000202880B82020800020288028807C
:103CF000288028802880288028802880BA2020805A
:103D0000242028800020288028802880C12020802E
:103D1000202028800020288054202880002028800F
:103D2000FF20288000202880C22020800A202880B0
:103D3000002028800420288000202880C3202080A4
:103D40003C202880002028803A20288000202880DD
:103D500039202880002028803720288000202880D3
:103D60003C202880002028803620288000202880C1
:103D700032202880002028802F20288000202880C2
:103D80002C202880002028802920288000202880BE
:103D900026202880002028802420288000202880B9
:103DA00024202880002028802320288000202880AC
:103DB0003C20288000202880362028800020288071
:103DC00032202880002028802F2028800020288072
:103DD0002C2028800020288029202880002028806E
:103DE0002620288000202880242028800020288069
:103DF000242028800020288023202880002028805C
:103E0000C42020806220288000202880052028806F
:103E1000002028808420288000202880F02028800E
:103E2000002028801820288000202880A4202880B6
:103E300000202880182028800020288050202880FA
:103E4000002028800C20288000202880172028802F
:103E5000002028809520288000202880F3202880BA
:103E600000202880E620288000202880C52020808F
:103E700032202880002028804420288000202880AC
:103E80006520288000202880762028800020288037
:103E90008820288000202880C6202080202028809C
:103EA00000202880172028800020288001202880DA
:103EB00000202880C720208000202880288028809B
:103EC0002880C82020800020288028802880288002
:103ED000C9202080002028802880288028802880F1
:103EE0002880288028802880288028802880288092
:103EF000288028802880E02020801620288000202C
:103F000028801C2028800020288021202880002054
:103F10002880362028800020288046202880002005
:103F200028805220288000202880642028800020BB
:103F300028807A202880002028808B20288000205C
:103F400028809920288000202880A8202880002010
:103F50002880B920288000202880C42028800020C4
:103F60002880CA20288000202880D2202880002095
:103F70002880D920288000202880E0202880002068
:103F80002880F320288000202880E120208016202F
:103F90002880002028801C202880002028802220C3
:103FA0002880002028803620288000202880452076
:103FB000288000202880522028800020288064202B
:103FC0002880002028807A202880002028808B20CC
:103FD0002880002028809920288000202880A82080
:103FE000288000202880B920288000202880C42034
:103FF000288000202880CA20288000202880D22005
:10400000288000202880D820288000202880E020D8
:10401000288000202880F320288000202880E220AB
:10402000208005202880002028800B202880002068
:1040300028801B2028800020288034202880002011
:10404000288044202880002028804F2028800020BD
:104050002880612028800020288079202880002066
:104060002880882028800020288097202880002011
:104070002880A620288000202880B72028800020C3
:104080002880C220288000202880C7202880002087
:104090002880D120288000202880D6202880002059
:1040A0002880DD20288000202880F3202880002020
:1040B0002880E320208005202880002028800A20F6
:1040C0002880002028801C20288000202880332081
:1040D000288000202880442028800020288050202C
:1040E00028800020288062202880002028807820D6
:1040F0002880002028808820288000202880972081
:10410000288000202880A620288000202880B72032
:10411000288000202880C220288000202880C720F6
:10412000288000202880D120288000202880D520C9
:10413000288000202880DD20288000202880F3208F
:10414000288000202880E420208001202880002072
:10415000288001202880002028800220288000203C
:1041600028802A202880002028803C2028800020C9
:1041700028804B202880002028805D202880002077
:104180002880742028800020288084202880002017
:1041900028809320288000202880A22028800020CA
:1041A0002880B320288000202880BE20288000207E
:1041B0002880C420288000202880CD20288000204E
:1041C0002880D320288000202880DD20288000201F
:1041D0002880F320288000202880E52020800020EF
:1041E000288028802880288002202880002028809D
:1041F00029202880002028803C202880002028803A
:104200004B202880002028805D20288000202880E6
:104210007420288000202880842028800020288086
:104220009320288000202880A22028800020288039
:10423000B320288000202880BE20288000202880ED
:10424000C420288000202880CD20288000202880BD
:10425000D320288000202880DC202880002028808F
:10426000F320288000202880E6202080112028804C
:104270000020288034202880002028805620288094
:104280000020288076202880002028807720288021
:104290000020288066202880002028808820288010
:1042A000002028809920288000202880BB2028809A
:1042B00000202880992028800020288066202880DF
:1042C0000020288055202880002028805520288024
:1042D0000020288045202880002028804320288036
:1042E000002028804420288000202880E72020808B
:1042F0003220288000202880552028800020288017
:1043000076202880002028806620288000202880B1
:1043100067202880002028806720288000202880AF
:10432000872028800020288099202880002028804D
:10433000BB20288000202880992028800020288009
:104340007720288000202880442028800020288092
:1043500056202880002028802320288000202880C4
:1043600033202880002028804520288000202880B5
:10437000E8202080002028802880992028800020A4
:1043800028808720288000202880882028800020FE
:104390002880772028800020288066202880002020
:1043A00028808820288000202880AA2028800020BB
:1043B0002880BB2028800020288099202880002089
:1043C0002880662028800020288055202880002012
:1043D0002880552028800020288044202880002024
:1043E0002880442028800020288055202880002014
:1043F0002880E9202080AA2028800020288028808A
:1044000028802080AA202880CF202080002028809B
:10441000288028802880288028802880288028805C
:10442000288028802880288028802880288028804C
:10443000F020208000202880502028800020288024
:10444000288000E02BE02880F320208000202880B6
:10445000F92020800620288010202880292028800C
:10446000002028803A20208055202880112020809C
:10447000642006F0A3FA2920208035202080002027
:10448000288051202080FF202880532020802C204D
:10449000288055202080822028802C20FDE348455C
:1044A0007ED14FF470495521484601F0D3FA4FF2BE
:1044B0000108AA21404601F0CDFA4FF20203522131
:1044C000184601F0C7FA4FF203050821284601F00B
:1044D000C1FA6E1C0121304601F0BCFA0D214FF4E7
:1044E000304001F0B7FA0D214BF2010001F0B2FAB1
:1044F0000D214BF2020001F0ADFA4FF4364A34219F
:10450000504601F0A7FA34214BF2016001F0A2FA03
:1045100034214BF2026001F09DFA4FF4314B0D2132
:10452000584601F097FA0D214BF2011001F092FA72
:104530000D214BF2021001F08DFA34214FF4374077
:1045400001F088FA34214BF2017001F083FA342132
:104550004BF2027001F07EFA00214FF4324001F07C
:1045600079FA00214BF2012001F074FA00214BF29C
:10457000022001F06FFA24214FF4384001F06AFA6A
:1045800024214BF6010001F065FA24214BF60200CC
:1045900001F060FA01214FF43F4001F05BFA00E0C6
:1045A000FEE30F214FF4334001F054FA0F214BF298
:1045B000013001F04FFA0F214BF2023001F04AFABC
:1045C00034214FF4394001F045FA34214BF6011003
:1045D00001F040FA34214BF6021001F03BFA0821B9
:1045E0004FF4354001F036FA08214BF2015001F04A
:1045F00031FA08214BF2025001F02CFA03214FF45A
:10460000424001F027FA24214FF43A4001F022FA07
:1046100024214BF6012001F01DFA24214BF6022043
:1046200001F018FA00214FF43C4001F013FA782110
:104630004BF6014001F00EFA00214BF6024001F06A
:1046400009FA00214FF43D4001F004FA78214BF6BD
:10465000015001F0FFF900214BF6025001F0FAF988
:1046600000214FF43E4001F0F5F964214BF6016062
:1046700001F0F0F900214FF4514001F0EBF9332142
:104680004DF2011001F0E6F900214DF2021001F0A7
:10469000E1F934214DF2031001F0DCF900214DF273
:1046A000041001F0D7F93A214DF2051001F0D2F9CA
:1046B00000214DF2061001F0CDF94A214DF207100C
:1046C00001F0C8F900214DF2081001F0C3F95C2196
:1046D0004DF2091001F0BEF900214DF20A1001F06F
:1046E000B9F981214DF20B1001F0B4F900214DF21E
:1046F0000C1001F0AFF9A6214DF20D1001F0AAF94E
:1047000000214DF20E1001F0A5F9E5214DF20F1038
:1047100001F0A0F901214DF2101001F09BF91321D5
:104720004DF2111001F096F901214DF2121001F035
:1047300091F954214DF2131001F08CF901214DF241
:10474000141001F087F982214DF2151001F082F961
:1047500001214DF2161001F07DF9CA214DF217101A
:1047600001F078F902214DF2181001F073F90021DF
:104770004DF2191001F06EF902214DF21A1001F0FC
:1047800069F901214DF21B1001F064F902214DF28B
:104790001C1001F05FF934214DF21D1001F05AF99F
:1047A00002214DF21E1001F055F967214DF21F1044
:1047B00001F050F902214DF2201001F04BF9842153
:1047C0004DF2211001F046F902214DF2221001F0C4
:1047D00041F9A4214DF2231001F03CF902214DF2E0
:1047E000241001F037F9B7214DF2251001F032F90C
:1047F00002214DF2261001F02DF9CF214DF22710A4
:1048000001F028F902214DF2281001F023F9DE21F0
:104810004DF2291001F01EF902214DF22A1001F08B
:1048200019F9F2214DF22B1001F014F902214DF289
:104830002C1001F00FF9FE214DF22D1001F00AF9B4
:1048400003214DF22E1001F005F910214DF22F1029
:1048500001F000F903214DF2301001F0FBF8332193
:104860004DF2311001F0F6F803214DF2321001F053
:10487000F1F86D214DF2331001F0ECF800214FF406
:10488000524001F0E7F833214DF2012001F0E2F847
:1048900000214DF2022001F0DDF834214DF2032019
:1048A00001F0D8F800214DF2042001F0D3F83A21AC
:1048B0004DF2052001F0CEF800214DF2062001F066
:1048C000C9F84A214DF2072001F0C4F800214DF249
:1048D000082001F0BFF85C214DF2092001F0BAF880
:1048E00000214DF20A2001F0B5F881214DF20B2094
:1048F00001F0B0F800214DF20C2001F0ABF8A62138
:104900004DF20D2001F0A6F800214DF20E2001F02D
:10491000A1F8E5214DF20F2001F09CF801214DF2A4
:10492000102001F097F813214DF2112001F092F8B8
:1049300001214DF2122001F08DF854214DF2132087
:1049400001F088F801214DF2142001F083F8822152
:104950004DF2152001F07EF801214DF2162001F0F4
:1049600079F8CA214DF2172001F074F802214DF2B6
:10497000182001F06FF800214DF2192001F06AF8BB
:1049800002214DF21A2001F065F801214DF21B20A1
:1049900001F060F802214DF21C2001F05BF8342197
:1049A0004DF21D2001F056F802214DF21E2001F0BB
:1049B00051F867214DF21F2001F04CF802214DF211
:1049C000202001F047F884214DF2212001F042F827
:1049D00002214DF2222001F03DF8A4214DF22320C6
:1049E00001F038F802214DF2242001F033F8B7210C
:1049F0004DF2252001F02EF802214DF2262001F083
:104A000029F8CF214DF2272001F024F802214DF2A0
:104A1000282001F01FF8DE214DF2292001F01AF8BC
:104A200002214DF22A2001F015F8F2214DF22B203F
:104A300001F010F802214DF22C2001F00BF8FE21BC
:104A40004DF22D2001F006F803214DF22E2001F049
:104A500001F810214DF22F2000F0FCFF03214DF250
:104A6000302000F0F7FF33214DF2312000F0F2FF4B
:104A700003214DF2322000F0EDFF6D214DF2332085
:104A800000F0E8FF00214FF4534000F0E3FF332132
:104A90004DF2013000F0DEFF00214DF2023000F057
:104AA000D9FF34214DF2033000F0D4FF00214DF244
:104AB000043000F0CFFF3A214DF2053000F0CAFF7C
:104AC00000214DF2063000F0C5FF4A214DF20730BB
:104AD00000F0C0FF00214DF2083000F0BBFF5C2168
:104AE0004DF2093000F0B6FF00214DF20A3000F01F
:104AF000B1FF81214DF20B3000F0ACFF00214DF2EF
:104B00000C3000F0A7FFA6214DF20D3000F0A2FFFF
:104B100000214DF20E3000F09DFFE5214DF20F30E7
:104B200000F098FF01214DF2103000F093FF1321A7
:104B30004DF2113000F08EFF01214DF2123000F0E5
:104B400089FF54214DF2133000F084FF01214DF212
:104B5000143000F07FFF82214DF2153000F07AFF13
:104B600001214DF2163000F075FFCA214DF21730C9
:104B700000F070FF02214DF2183000F06BFF0021B1
:104B80004DF2193000F066FF02214DF21A3000F0AC
:104B900061FF01214DF21B3000F05CFF02214DF25C
:104BA0001C3000F057FF34214DF21D3000F052FF51
:104BB00002214DF21E3000F04DFF67214DF21F30F3
:104BC00000F048FF02214DF2203000F043FF842125
:104BD0004DF2213000F03EFF02214DF2223000F074
:104BE00039FFA4214DF2233000F034FF02214DF2B1
:104BF000243000F02FFFB7214DF2253000F02AFFBE
:104C000002214DF2263000F025FFCF214DF2273052
:104C100000F020FF02214DF2283000F01BFFDE21C2
:104C20004DF2293000F016FF02214DF22A3000F03B
:104C300011FFF2214DF22B3000F00CFF02214DF25A
:104C40002C3000F007FFFE214DF22D3000F002FF66
:104C500003214DF22E3000F0FDFE10214DF22F30D9
:104C600000F0F8FE03214DF2303000F0F3FE332166
:104C70004DF2313000F0EEFE03214DF2323000F003
:104C8000E9FE6D214DF2333000F0E4FE00214FF4D7
:104C9000544000F0DFFE332100E080E34DF201409C
:104CA00000F0D8FE00214DF2024000F0D3FE342186
:104CB0004DF2034000F0CEFE00214DF2044000F022
:104CC000C9FE3A214DF2054000F0C4FE00214DF22C
:104CD000064000F0BFFE4A214DF2074000F0BAFE48
:104CE00000214DF2084000F0B5FE5C214DF2094074
:104CF00000F0B0FE00214DF20A4000F0ABFE812131
:104D00004DF20B4000F0A6FE00214DF20C4000F0E9
:104D1000A1FEA6214DF20D4000F09CFE00214DF2B7
:104D20000E4000F097FEE5214DF20F4000F092FE9C
:104D300001214DF2104000F08DFE13214DF2114083
:104D400000F088FE01214DF2124000F083FE542154
:104D50004DF2134000F07EFE01214DF2144000F0B0
:104D600079FE82214DF2154000F074FE01214DF2D2
:104D7000164000F06FFECA214DF2174000F06AFEA7
:104D800002214DF2184000F065FE00214DF219405D
:104D900000F060FE02214DF21A4000F05BFE00E0E0
:104DA000FFE201214DF21B4000F054FE02214DF2C2
:104DB0001C4000F04FFE34214DF21D4000F04AFE31
:104DC00002214DF21E4000F045FE67214DF21F40CA
:104DD00000F040FE02214DF2204000F03BFE842115
:104DE0004DF2214000F036FE02214DF2224000F04B
:104DF00031FEA4214DF2234000F02CFE02214DF2A1
:104E0000244000F027FEB7214DF2254000F022FE9D
:104E100002214DF2264000F01DFECF214DF2274029
:104E200000F018FE02214DF2284000F013FEDE21B2
:104E30004DF2294000F00EFE02214DF22A4000F012
:104E400009FEF2214DF22B4000F004FE02214DF24A
:104E50002C4000F0FFFDFE214DF22D4000F0FAFD48
:104E600003214DF22E4000F0F5FD10214DF22F40B0
:104E700000F0F0FD03214DF2304000F0EBFD332156
:104E80004DF2314000F0E6FD03214DF2324000F0DA
:104E9000E1FD6D214DF2334000F0DCFD00214FF4C7
:104EA000554000F0D7FD33214DF2015000F0D2FD06
:104EB00000214DF2025000F0CDFD34214DF203509F
:104EC00000F0C8FD00214DF2045000F0C3FD3A216E
:104ED0004DF2055000F0BEFD00214DF2065000F0ED
:104EE000B9FD4A214DF2075000F0B4FD00214DF20A
:104EF000085000F0AFFD5C214DF2095000F0AAFD12
:104F000000214DF20A5000F0A5FD81214DF20B5019
:104F100000F0A0FD00214DF20C5000F09BFDA621F9
:104F20004DF20D5000F096FD00214DF20E5000F0B4
:104F300091FDE5214DF20F5000F08CFD01214DF265
:104F4000105000F087FD13214DF2115000F082FD4A
:104F500001214DF2125000F07DFD54214DF213500D
:104F600000F078FD01214DF2145000F073FD822114
:104F70004DF2155000F06EFD01214DF2165000F07B
:104F800069FDCA214DF2175000F064FD02214DF277
:104F9000185000F05FFD00214DF2195000F05AFD4D
:104FA00002214DF21A5000F055FD01214DF21B5027
:104FB00000F050FD02214DF21C5000F04BFD342159
:104FC0004DF21D5000F046FD02214DF21E5000F042
:104FD00041FD67214DF21F5000F03CFD02214DF2D2
:104FE000205000F037FD84214DF2215000F032FDB9
:104FF00002214DF2225000F02DFDA4214DF223504C
:1050000000F028FD02214DF2245000F023FDB721CD
:105010004DF2255000F01EFD02214DF2265000F009
:1050200019FDCF214DF2275000F014FD02214DF261
:10503000285000F00FFDDE214DF2295000F00AFD4E
:1050400002214DF22A5000F005FDF2214DF22B50C5
:1050500000F000FD02214DF22C5000F0FBFCFE217F
:105060004DF22D5000F0F6FC03214DF22E5000F0D1
:10507000F1FC10214DF22F5000F0ECFC03214DF219
:10508000305000F0E7FC33214DF2315000F0E2FCEB
:1050900003214DF2325000F0DDFC6D214DF2335012
:1050A00000F0D8FC00214FF4564000F0D3FC33212F
:1050B0004DF2016000F0CEFC00214DF2026000F0E4
:1050C000C9FC34214DF2036000F0C4FC00214DF214
:1050D000046000F0BFFC3A214DF2056000F0BAFC1C
:1050E00000214DF2066000F0B5FC4A214DF2076048
:1050F00000F0B0FC00214DF2086000F0ABFC5C2138
:105100004DF2096000F0A6FC00214DF20A6000F0AB
:10511000A1FC81214DF20B6000F09CFC00214DF2BE
:105120000C6000F097FCA6214DF20D6000F092FC9F
:1051300000214DF20E6000F08DFCE5214DF20F6074
:1051400000F088FC01214DF2106000F083FC132177
:105150004DF2116000F07EFC01214DF2126000F072
:1051600079FC54214DF2136000F074FC01214DF2E2
:10517000146000F06FFC82214DF2156000F06AFCB3
:1051800001214DF2166000F065FCCA214DF2176056
:1051900000F060FC02214DF2186000F05BFC002181
:1051A0004DF2196000F056FC02214DF21A6000F039
:1051B00051FC01214DF21B6000F04CFC02214DF22C
:1051C0001C6000F047FC34214DF21D6000F042FCF1
:1051D00002214DF21E6000F03DFC67214DF21F6080
:1051E00000F038FC02214DF2206000F033FC8421F5
:1051F0004DF2216000F02EFC02214DF2226000F001
:1052000029FCA4214DF2236000F024FC02214DF280
:10521000246000F01FFCB7214DF2256000F01AFC5D
:1052200002214DF2266000F015FCCF214DF22760DF
:1052300000F010FC02214DF2286000F00BFCDE2192
:105240004DF2296000F006FC02214DF22A6000F0C8
:1052500001FCF2214DF22B6000F0FCFB02214DF22B
:105260002C6000F0F7FBFE214DF22D6000F0F2FB08
:1052700003214DF22E6000F0EDFB10214DF22F6066
:1052800000F0E8FB03214DF2306000F0E3FB332136
:105290004DF2316000F0DEFB03214DF2326000F090
:1052A000D9FB6D214DF2336000F0D4FB5521484607
:1052B00000F0D0FBAA21404600F0CCFB522118465A
:1052C00000F0C8FB0821284600F0C4FB002130464E
:1052D00000F0C0FBCC21584600F0BCFB00214BF293
:1052E000011000F0B7FB0521504600F0B3FB702120
:1052F0004FF4374000F0AEFB70214BF2017000F02C
:10530000A9FB01214FF4384000F0A4FB03214BF628
:10531000010000F09FFB03214BF6020000F09AFB16
:1053200003214BF6030000F095FB02214FF43C40B3
:1053300000F090FB00214BF6014000F08BFB0021B8
:105340004BF6024000F086FBD0214FF4494000F0BC
:1053500081FB02214CF6011000F07CFB50214CF641
:10536000021000F077FB50214CF6031000F072FBA6
:1053700050214CF6041000F06DFB00214FF4545006
:1053800000F068FB55214FF4685000F063FB4FF4C8
:1053900088502080782005F02BFB4FF4245020808B
:1053A0007BE0584579D1E22020801D202880022012
:1053B000288004202880642005F01AFBE02020804B
:1053C000012028800A2005F0F9FAE020208003203F
:1053D00028800C2005F0F2FA012020800A2005F038
:1053E000EDFAE62020802F202880FF2028802880CA
:1053F000B0202080202028800020288003202880C2
:1054000040F21F3028800120288040F2DF102880E1
:1054100000202880B42020800420288040F21F40F3
:105420002880002028802E202880002028802880A6
:1054300028802880B6202080022028804FF4037026
:105440002880002028801720288015202880002010
:1054500028802880F0202080032028802920208098
:10546000D020208000202880BE2020800520288099
:10547000FE20288001202880002028802880288085
:10548000B82020800320288001202880BA20208096
:1054900001202880642000F055F80020FEF718F85D
:1054A00004490120C1F880013846FDF7F9FF1FB01B
:1054B000BDE8F08F008021420346012000E0584300
:1054C000491EC9B2FBD27047034808B50088ADF841
:1054D0000000BDF8000008BD0008006C10B5174CB6
:1054E0002288824202D962888A4201D8002010BDF7
:1054F00000F0E8F8A0881249A0F5AA42103A1AD0A4
:105500002E200880FFF7E0FFA188A1F5C852633A7A
:10551000EDD0FFF7D9FF0146FFF7D6FFCAB24FF62D
:10552000FF7303EA02226FF30A01920A41EA421171
:1055300041EAD02010BD4FF43850E2E708020020C5
:10554000FE07006C0C4A10B5BE211180941C052189
:1055500021800AF0B8FC4FF06632084B0AF0C6FC16
:105560000AF084FC208001202080FF202080002081
:105570002080208010BD0000FE07006C666604409D
:1055800070B54E4D00232946AA79898841F66314E7
:10559000012A01D01AB11BE0A14202D118E0A142B8
:1055A00016D1082814D2DFE800F00406080A0C0E11
:1055B000101206200CE007200AE0042008E0052075
:1055C00006E0012004E0002002E0032000E00220C9
:1055D000082812D2DFE800F0110406080A0C0E10A9
:1055E00080230AE0402308E0C02306E0202304E0F3
:1055F000602302E0A02300E0E02345F21056B14210
:1056000002D14FF4585000E03620A1F51342413A40
:1056100003D0A1F5EE42893A01D143F008031946BF
:1056200000F018FAAA88A2420AD098062888698849
:1056300002D5884202D303E0884201D929806880DC
:105640001F48811CB2426A89028021D100230B804D
:10565000531C038000230B80931C03802B885B1E4C
:105660001C0A0C80D21C0280DAB20A80AA8902804D
:1056700000230B80531C038000230B80931C0380AA
:105680006B885B1E1C0A0C80D21C0280D8B212E010
:1056900000220A800A802A88521E130A0B80D2B286
:1056A0000A80AA8902800020088008806888401E3D
:1056B000020A0A80C0B2088070BD00000802002003
:1056C000FE07006C2DE9F043DFF8A490294F4A460D
:1056D000B9F804C09389050A0C0ABE1C5289ACF5BE
:1056E000C858B8F163080ED0ACF5A048B8F5A26868
:1056F0003A80358033D0C0B230803B803480C8B22D
:105700003080BDE8F083DFF868C099F80680BCF807
:1057100000C0B8F1000F16D03A803580C0B230809A
:10572000ACF1010C4FEA1C2030800CF0FF003080FF
:105730003B803480C8B23080B9F80200401E010AB4
:105740003180C0B2DCE7ACEB0000401E80B23A8092
:10575000002232803280020A3280C0B2E7E7521C57
:105760003A80C0B230803B8034805B1C3B80C6E70F
:1057700008020020FE07006C2DE9FF4F83185B1E16
:105780001FFA83FA039B464E0B44A3F101083346EC
:10579000B788DFF810E19C890D0A5B89A7F5C85C22
:1057A0001FFA88F90EF1020BBCF1630C29D196F8AF
:1057B00006C0BCF1010F24D036881FFA88F7B61A4C
:1057C000301A86B2AEF80030330A5846ABF80030D3
:1057D000F3B2ABF800303244521E130AABF800307B
:1057E000D2B2ABF80020AEF80040ABF80050C9B21E
:1057F000ABF80010390AABF80010F9B20180BDE82F
:10580000FF8F0244521EC2F30728039AA7F5A04C4B
:105810000A44521E060AC2F30722BCF5A26C774660
:10582000AEF8003017D0ABF80060C0B2ABF80000A3
:10583000ABF800800AF0FF00ABF800003C80ABF84A
:105840000050C8B2ABF80000ABF8002009F0FF0030
:10585000ABF80000D3E7DC46ABF800605E1C3E808E
:10586000C0B2ABF80000981C3880ABF80080DB1C9D
:105870003B800AF0FF00ABF800003C80ABF8005022
:10588000601C3880C8B2ACF80000A01C3880ACF8AE
:105890000020E41C3C8009F0FF00ACF80000AEE7FB
:1058A00008020020FE07006C2DE9F84F82461F46D3
:1058B0000C468B46580700D0012000EBD700790832
:1058C0004843203AC0B202F0FF090026009041E0B0
:1058D0000C2F10D0102F12D0182F3ED1204909EBD9
:1058E000C90001EB80004FF00008855D28060AD54D
:1058F0001C4802880BE009EB49001B49F1E71B49F2
:1059000001EB0910EFE70A9828B9164842882146AA
:105910005046FDF739FE6806050E1548641CA4B212
:105920004088A04219D9A4EB0B00B84209D10AF172
:1059300001001FFA80FA0E485C46018851450CD9D7
:1059400006E008F1010000F0FF08B8F1080FCDD320
:10595000761CF6B200988642BAD3BDE8F88F0000F4
:105960005612010826000020F2070108660C010803
:10597000080200202DE9FF4F81B00027DDF838B084
:105980001D46924680463C46B9464FEA5B0627E0F4
:10599000281B401EC1B20A20FFF78EFDBAFBF0F0B3
:1059A0000A21B0FBF1F201FB120027B9691E8C42FB
:1059B00001DA48B101273030C2B206FB048080B260
:1059C0005B46CDF8009006E006FB048080B25B46A3
:1059D0002022CDF800900299FFF766FF641CE4B224
:1059E000AC42D5D305B0BDE8F08F2DE9F84F0446A1
:1059F00000F0FF0810190D46DDE90A761FFA80FA5B
:105A000058191FFA80F94FF0000B11E0544502D3EA
:105A1000E819444685B24D450FD23B4629462046FB
:105A2000CDF800B0FFF740FF04EB570084B2761CBE
:105A30003278A2F120005E28E8D9BDE8F88F000096
:105A400002480349008908807047000008020020CE
:105A5000FE07006C024A1080901C01807047000015
:105A6000FE07006C38B50121482000F075FF2024A6
:105A7000ADF8004010208DF8030003200B4D8DF889
:105A8000020069462846FDF77FFA20212846FDF7E7
:105A9000FEFAADF80040064C69462046FDF774FA60
:105AA00020212046FDF7F3FA38BD0000000C01402C
:105AB0000018014003490A885206FCD50149091D16
:105AC0000880704700480040FEE7704730B50F235C
:105AD000C27801780125F2B1144A126801F1E0217F
